{"contracts/MemoryIntegrity.sol":{"MemoryIntegrity":{"abi":[{"anonymous":false,"inputs":[{"indexed":true,"internalType":"bytes32","name":"contentHash","type":"bytes32"},{"indexed":true,"internalType":"address","name":"anchor","type":"address"},{"indexed":false,"internalType":"uint256","name":"timestamp","type":"uint256"}],"name":"HashAnchored","type":"event"},{"inputs":[{"internalType":"bytes32","name":"contentHash","type":"bytes32"}],"name":"anchor","outputs":[],"stateMutability":"nonpayable","type":"function"},{"inputs":[{"internalType":"bytes32[]","name":"hashes","type":"bytes32[]"}],"name":"anchorBatch","outputs":[],"stateMutability":"nonpayable","type":"function"},{"inputs":[{"internalType":"bytes32","name":"contentHash","type":"bytes32"}],"name":"verify","outputs":[{"internalType":"bool","name":"exists","type":"bool"},{"internalType":"address","name":"anchorAddr","type":"address"},{"internalType":"uint256","name":"timestamp","type":"uint256"}],"stateMutability":"view","type":"function"}],"evm":{"bytecode":{"linkReferences":{},"object":"608060405234801561001057600080fd5b506103e6806100206000396000f3fe608060405234801561001057600080fd5b50600436106100415760003560e01c806373d2a9e61461004657806375e366161461005b578063eecdf927146100c1575b600080fd5b61005961005436600461030c565b6100d4565b005b610098610069366004610381565b60009081526020819052604090206002810154815460019092015460ff909116926001600160a01b0390921691565b6040805193151584526001600160a01b0390921660208401529082015260600160405180910390f35b6100596100cf366004610381565b610204565b60005b818110156101ff576000808484848181106100f4576100f461039a565b602090810292909201358352508101919091526040016000206002015460ff166101f757604080516060810182523381524260208201526001918101919091526000808585858181106101495761014961039a565b60209081029290920135835250818101929092526040908101600020835181546001600160a01b0319166001600160a01b0390911617815591830151600183015591909101516002909101805460ff1916911515919091179055338383838181106101b6576101b661039a565b905060200201357fa5cbeb7570a6c7c834762f7c213557e60c453fd24203dd5f7d85864ff2738c39426040516101ee91815260200190565b60405180910390a35b6001016100d7565b505050565b60008181526020819052604090206002015460ff16156102745760405162461bcd60e51b815260206004820152602160248201527f4d656d6f7279496e746567726974793a20616c726561647920616e63686f72656044820152601960fa1b606482015260840160405180910390fd5b604080516060810182523380825242602080840182815260018587018181526000898152808552889020965187546001600160a01b0319166001600160a01b03909116178755915190860155516002909401805460ff19169415159490941790935592519283529183917fa5cbeb7570a6c7c834762f7c213557e60c453fd24203dd5f7d85864ff2738c39910160405180910390a350565b6000806020838503121561031f57600080fd5b823567ffffffffffffffff8082111561033757600080fd5b818501915085601f83011261034b57600080fd5b81358181111561035a57600080fd5b8660208260051b850101111561036f57600080fd5b60209290920196919550909350505050565b60006020828403121561039357600080fd5b5035919050565b634e487b7160e01b600052603260045260246000fdfea26469706673582212208e617cbee7c0463d77825fd6eb407f20d9bfd80c6389e7bafcfccafe884b8b1e64736f6c63430008180033","opcodes":"PUSH1 0x80 PUSH1 0x40 MSTORE CALLVALUE DUP1 ISZERO PUSH2 0x10 JUMPI PUSH1 0x0 DUP1 REVERT JUMPDEST POP PUSH2 0x3E6 DUP1 PUSH2 0x20 PUSH1 0x0 CODECOPY PUSH1 0x0 RETURN INVALID PUSH1 0x80 PUSH1 0x40 MSTORE CALLVALUE DUP1 ISZERO PUSH2 0x10 JUMPI PUSH1 0x0 DUP1 REVERT JUMPDEST POP PUSH1 0x4 CALLDATASIZE LT PUSH2 0x41 JUMPI PUSH1 0x0 CALLDATALOAD PUSH1 0xE0 SHR DUP1 PUSH4 0x73D2A9E6 EQ PUSH2 0x46 JUMPI DUP1 PUSH4 0x75E36616 EQ PUSH2 0x5B JUMPI DUP1 PUSH4 0xEECDF927 EQ PUSH2 0xC1 JUMPI JUMPDEST PUSH1 0x0 DUP1 REVERT JUMPDEST PUSH2 0x59 PUSH2 0x54 CALLDATASIZE PUSH1 0x4 PUSH2 0x30C JUMP JUMPDEST PUSH2 0xD4 JUMP JUMPDEST STOP JUMPDEST PUSH2 0x98 PUSH2 0x69 CALLDATASIZE PUSH1 0x4 PUSH2 0x381 JUMP JUMPDEST PUSH1 0x0 SWAP1 DUP2 MSTORE PUSH1 0x20 DUP2 SWAP1 MSTORE PUSH1 0x40 SWAP1 KECCAK256 PUSH1 0x2 DUP2 ADD SLOAD DUP2 SLOAD PUSH1 0x1 SWAP1 SWAP3 ADD SLOAD PUSH1 0xFF SWAP1 SWAP2 AND SWAP3 PUSH1 0x1 PUSH1 0x1 PUSH1 0xA0 SHL SUB SWAP1 SWAP3 AND SWAP2 JUMP JUMPDEST PUSH1 0x40 DUP1 MLOAD SWAP4 ISZERO ISZERO DUP5 MSTORE PUSH1 0x1 PUSH1 0x1 PUSH1 0xA0 SHL SUB SWAP1 SWAP3 AND PUSH1 0x20 DUP5 ADD MSTORE SWAP1 DUP3 ADD MSTORE PUSH1 0x60 ADD PUSH1 0x40 MLOAD DUP1 SWAP2 SUB SWAP1 RETURN JUMPDEST PUSH2 0x59 PUSH2 0xCF CALLDATASIZE PUSH1 0x4 PUSH2 0x381 JUMP JUMPDEST PUSH2 0x204 JUMP JUMPDEST PUSH1 0x0 JUMPDEST DUP2 DUP2 LT ISZERO PUSH2 0x1FF JUMPI PUSH1 0x0 DUP1 DUP5 DUP5 DUP5 DUP2 DUP2 LT PUSH2 0xF4 JUMPI PUSH2 0xF4 PUSH2 0x39A JUMP JUMPDEST PUSH1 0x20 SWAP1 DUP2 MUL SWAP3 SWAP1 SWAP3 ADD CALLDATALOAD DUP4 MSTORE POP DUP2 ADD SWAP2 SWAP1 SWAP2 MSTORE PUSH1 0x40 ADD PUSH1 0x0 KECCAK256 PUSH1 0x2 ADD SLOAD PUSH1 0xFF AND PUSH2 0x1F7 JUMPI PUSH1 0x40 DUP1 MLOAD PUSH1 0x60 DUP2 ADD DUP3 MSTORE CALLER DUP2 MSTORE TIMESTAMP PUSH1 0x20 DUP3 ADD MSTORE PUSH1 0x1 SWAP2 DUP2 ADD SWAP2 SWAP1 SWAP2 MSTORE PUSH1 0x0 DUP1 DUP6 DUP6 DUP6 DUP2 DUP2 LT PUSH2 0x149 JUMPI PUSH2 0x149 PUSH2 0x39A JUMP JUMPDEST PUSH1 0x20 SWAP1 DUP2 MUL SWAP3 SWAP1 SWAP3 ADD CALLDATALOAD DUP4 MSTORE POP DUP2 DUP2 ADD SWAP3 SWAP1 SWAP3 MSTORE PUSH1 0x40 SWAP1 DUP2 ADD PUSH1 0x0 KECCAK256 DUP4 MLOAD DUP2 SLOAD PUSH1 0x1 PUSH1 0x1 PUSH1 0xA0 SHL SUB NOT AND PUSH1 0x1 PUSH1 0x1 PUSH1 0xA0 SHL SUB SWAP1 SWAP2 AND OR DUP2 SSTORE SWAP2 DUP4 ADD MLOAD PUSH1 0x1 DUP4 ADD SSTORE SWAP2 SWAP1 SWAP2 ADD MLOAD PUSH1 0x2 SWAP1 SWAP2 ADD DUP1 SLOAD PUSH1 0xFF NOT AND SWAP2 ISZERO ISZERO SWAP2 SWAP1 SWAP2 OR SWAP1 SSTORE CALLER DUP4 DUP4 DUP4 DUP2 DUP2 LT PUSH2 0x1B6 JUMPI PUSH2 0x1B6 PUSH2 0x39A JUMP JUMPDEST SWAP1 POP PUSH1 0x20 MUL ADD CALLDATALOAD PUSH32 0xA5CBEB7570A6C7C834762F7C213557E60C453FD24203DD5F7D85864FF2738C39 TIMESTAMP PUSH1 0x40 MLOAD PUSH2 0x1EE SWAP2 DUP2 MSTORE PUSH1 0x20 ADD SWAP1 JUMP JUMPDEST PUSH1 0x40 MLOAD DUP1 SWAP2 SUB SWAP1 LOG3 JUMPDEST PUSH1 0x1 ADD PUSH2 0xD7 JUMP JUMPDEST POP POP POP JUMP JUMPDEST PUSH1 0x0 DUP2 DUP2 MSTORE PUSH1 0x20 DUP2 SWAP1 MSTORE PUSH1 0x40 SWAP1 KECCAK256 PUSH1 0x2 ADD SLOAD PUSH1 0xFF AND ISZERO PUSH2 0x274 JUMPI PUSH1 0x40 MLOAD PUSH3 0x461BCD PUSH1 0xE5 SHL DUP2 MSTORE PUSH1 0x20 PUSH1 0x4 DUP3 ADD MSTORE PUSH1 0x21 PUSH1 0x24 DUP3 ADD MSTORE PUSH32 0x4D656D6F7279496E746567726974793A20616C726561647920616E63686F7265 PUSH1 0x44 DUP3 ADD MSTORE PUSH1 0x19 PUSH1 0xFA SHL PUSH1 0x64 DUP3 ADD MSTORE PUSH1 0x84 ADD PUSH1 0x40 MLOAD DUP1 SWAP2 SUB SWAP1 REVERT JUMPDEST PUSH1 0x40 DUP1 MLOAD PUSH1 0x60 DUP2 ADD DUP3 MSTORE CALLER DUP1 DUP3 MSTORE TIMESTAMP PUSH1 0x20 DUP1 DUP5 ADD DUP3 DUP2 MSTORE PUSH1 0x1 DUP6 DUP8 ADD DUP2 DUP2 MSTORE PUSH1 0x0 DUP10 DUP2 MSTORE DUP1 DUP6 MSTORE DUP9 SWAP1 KECCAK256 SWAP7 MLOAD DUP8 SLOAD PUSH1 0x1 PUSH1 0x1 PUSH1 0xA0 SHL SUB NOT AND PUSH1 0x1 PUSH1 0x1 PUSH1 0xA0 SHL SUB SWAP1 SWAP2 AND OR DUP8 SSTORE SWAP2 MLOAD SWAP1 DUP7 ADD SSTORE MLOAD PUSH1 0x2 SWAP1 SWAP5 ADD DUP1 SLOAD PUSH1 0xFF NOT AND SWAP5 ISZERO ISZERO SWAP5 SWAP1 SWAP5 OR SWAP1 SWAP4 SSTORE SWAP3 MLOAD SWAP3 DUP4 MSTORE SWAP2 DUP4 SWAP2 PUSH32 0xA5CBEB7570A6C7C834762F7C213557E60C453FD24203DD5F7D85864FF2738C39 SWAP2 ADD PUSH1 0x40 MLOAD DUP1 SWAP2 SUB SWAP1 LOG3 POP JUMP JUMPDEST PUSH1 0x0 DUP1 PUSH1 0x20 DUP4 DUP6 SUB SLT ISZERO PUSH2 0x31F JUMPI PUSH1 0x0 DUP1 REVERT JUMPDEST DUP3 CALLDATALOAD PUSH8 0xFFFFFFFFFFFFFFFF DUP1 DUP3 GT ISZERO PUSH2 0x337 JUMPI PUSH1 0x0 DUP1 REVERT JUMPDEST DUP2 DUP6 ADD SWAP2 POP DUP6 PUSH1 0x1F DUP4 ADD SLT PUSH2 0x34B JUMPI PUSH1 0x0 DUP1 REVERT JUMPDEST DUP2 CALLDATALOAD DUP2 DUP2 GT ISZERO PUSH2 0x35A JUMPI PUSH1 0x0 DUP1 REVERT JUMPDEST DUP7 PUSH1 0x20 DUP3 PUSH1 0x5 SHL DUP6 ADD ADD GT ISZERO PUSH2 0x36F JUMPI PUSH1 0x0 DUP1 REVERT JUMPDEST PUSH1 0x20 SWAP3 SWAP1 SWAP3 ADD SWAP7 SWAP2 SWAP6 POP SWAP1 SWAP4 POP POP POP POP JUMP JUMPDEST PUSH1 0x0 PUSH1 0x20 DUP3 DUP5 SUB SLT ISZERO PUSH2 0x393 JUMPI PUSH1 0x0 DUP1 REVERT JUMPDEST POP CALLDATALOAD SWAP2 SWAP1 POP JUMP JUMPDEST PUSH4 0x4E487B71 PUSH1 0xE0 SHL PUSH1 0x0 MSTORE PUSH1 0x32 PUSH1 0x4 MSTORE PUSH1 0x24 PUSH1 0x0 REVERT INVALID LOG2 PUSH5 0x6970667358 0x22 SLT KECCAK256 DUP15 PUSH2 0x7CBE 0xE7 0xC0 CHAINID RETURNDATASIZE PUSH24 0x825FD6EB407F20D9BFD80C6389E7BAFCFCCAFE884B8B1E64 PUSH20 0x6F6C634300081800330000000000000000000000 "},"methodIdentifiers":{"anchor(bytes32)":"eecdf927","anchorBatch(bytes32[])":"73d2a9e6","verify(bytes32)":"75e36616"}}}}}