{
  "_format": "hh-sol-artifact-1",
  "contractName": "MemoryIntegrity",
  "sourceName": "contracts/MemoryIntegrity.sol",
  "abi": [
    {
      "anonymous": false,
      "inputs": [
        {
          "indexed": true,
          "internalType": "bytes32",
          "name": "contentHash",
          "type": "bytes32"
        },
        {
          "indexed": true,
          "internalType": "address",
          "name": "anchor",
          "type": "address"
        },
        {
          "indexed": false,
          "internalType": "uint256",
          "name": "timestamp",
          "type": "uint256"
        }
      ],
      "name": "HashAnchored",
      "type": "event"
    },
    {
      "inputs": [
        {
          "internalType": "bytes32",
          "name": "contentHash",
          "type": "bytes32"
        }
      ],
      "name": "anchor",
      "outputs": [],
      "stateMutability": "nonpayable",
      "type": "function"
    },
    {
      "inputs": [
        {
          "internalType": "bytes32[]",
          "name": "hashes",
          "type": "bytes32[]"
        }
      ],
      "name": "anchorBatch",
      "outputs": [],
      "stateMutability": "nonpayable",
      "type": "function"
    },
    {
      "inputs": [
        {
          "internalType": "bytes32",
          "name": "contentHash",
          "type": "bytes32"
        }
      ],
      "name": "verify",
      "outputs": [
        {
          "internalType": "bool",
          "name": "exists",
          "type": "bool"
        },
        {
          "internalType": "address",
          "name": "anchorAddr",
          "type": "address"
        },
        {
          "internalType": "uint256",
          "name": "timestamp",
          "type": "uint256"
        }
      ],
      "stateMutability": "view",
      "type": "function"
    }
  ],
  "bytecode": "0x608060405234801561001057600080fd5b506103e6806100206000396000f3fe608060405234801561001057600080fd5b50600436106100415760003560e01c806373d2a9e61461004657806375e366161461005b578063eecdf927146100c1575b600080fd5b61005961005436600461030c565b6100d4565b005b610098610069366004610381565b60009081526020819052604090206002810154815460019092015460ff909116926001600160a01b0390921691565b6040805193151584526001600160a01b0390921660208401529082015260600160405180910390f35b6100596100cf366004610381565b610204565b60005b818110156101ff576000808484848181106100f4576100f461039a565b602090810292909201358352508101919091526040016000206002015460ff166101f757604080516060810182523381524260208201526001918101919091526000808585858181106101495761014961039a565b60209081029290920135835250818101929092526040908101600020835181546001600160a01b0319166001600160a01b0390911617815591830151600183015591909101516002909101805460ff1916911515919091179055338383838181106101b6576101b661039a565b905060200201357fa5cbeb7570a6c7c834762f7c213557e60c453fd24203dd5f7d85864ff2738c39426040516101ee91815260200190565b60405180910390a35b6001016100d7565b505050565b60008181526020819052604090206002015460ff16156102745760405162461bcd60e51b815260206004820152602160248201527f4d656d6f7279496e746567726974793a20616c726561647920616e63686f72656044820152601960fa1b606482015260840160405180910390fd5b604080516060810182523380825242602080840182815260018587018181526000898152808552889020965187546001600160a01b0319166001600160a01b03909116178755915190860155516002909401805460ff19169415159490941790935592519283529183917fa5cbeb7570a6c7c834762f7c213557e60c453fd24203dd5f7d85864ff2738c39910160405180910390a350565b6000806020838503121561031f57600080fd5b823567ffffffffffffffff8082111561033757600080fd5b818501915085601f83011261034b57600080fd5b81358181111561035a57600080fd5b8660208260051b850101111561036f57600080fd5b60209290920196919550909350505050565b60006020828403121561039357600080fd5b5035919050565b634e487b7160e01b600052603260045260246000fdfea26469706673582212208e617cbee7c0463d77825fd6eb407f20d9bfd80c6389e7bafcfccafe884b8b1e64736f6c63430008180033",
  "linkReferences": {},
  "deployedLinkReferences": {}
}